:1000000046C018C25FC05EC069C45CC05BC05AC055
:1000100059C058C057C056C055C054C053C004033F
:1000200009040E035400680069006E0067004D006B
:10003000120362006C0069006E006B002800310042
:1000400029001201100100000008B827ED0100018D
:1000500001020301090222000101008032090400AB
:10006000000103000000092101010001221800071E
:100070000581030800320600FF0901A101150026D1
:10008000FF007508850195080900B20201C011241E
:100090001FBECFE5D2E0DEBFCDBF10E0A0E6B0E0EE
:1000A000E6ECFFE002C005900D92AA37B107D9F740
:1000B00011E0AAE7B0E001C01D92A732B107E1F755
:1000C00087D47FC79DCF85B7826085BF8BB780649B
:1000D0008BBF8BE48093A2008AE58093A1000895F2
:1000E0001F93DC01162F8091A10084FF07C080912F
:1000F000A20098E889278093A20003C08AE5809334
:10010000A100912FE3EAF0E08D91819391501916AF
:10011000DCF383EA90E0612F76D11C5F1093A1009D
:100120001F9108951F93CF93DF936091B2006350A6
:1001300067FDCDC08091AF00CCE0D0E0C81BD109F5
:10014000CA54DF4F8091AE008D3209F0AEC06830E6
:1001500009F0BBC083EC809396008AE58093600031
:1001600010927B008881807639F0CE01DDD3282F74
:100170008F3F09F489C08FC09A8110929F008981B6
:10018000882321F41092A00022E077C0853019F472
:100190009093B30071C0863009F05AC08B818130D2
:1001A00019F482E490E028C0823049F484E590E0BC
:1001B0009093B1008093B00080E422E246C0833087
:1001C00061F58A81882349F48EE190E09093B10033
:1001D0008093B00080E424E038C0813049F482E2AA
:1001E00090E09093B1008093B00080E42EE02DC0A9
:1001F000823041F480E390E09093B1008093B000AE
:1002000080E409C08330F9F487E690E09093B10070
:100210008093B00080E022E118C0813249F486E684
:1002200090E09093B1008093B00080E429E00DC08D
:10023000823249F486E790E09093B1008093B00059
:1002400080E428E102C080E420E080937B0023C0AA
:10025000883021F421E085EB90E011C0893019F459
:100260009093B50009C08A3011F421E006C08B30AC
:1002700019F48BE48093A20020E08FE990E0909342
:10028000B1008093B00007C0888187FD2E8180E88F
:1002900080937B0006C08F81882319F48E8182179A
:1002A00008F0822F8093610010C080917B0087FF4F
:1002B0000CC0CE019BD58F3F21F48EE1809360006E
:1002C00004C0882311F0109261001092B200809156
:1002D000600084FF58C0809161008F3F09F453C0D3
:1002E000182F893008F018E0811B809361008091FD
:1002F000960098E8892780939600112391F18091C8
:100300007B0087FF08C087E990E0612F2CD3182F6E
:10031000893098F526C02091B0003091B10086FF59
:100320000DC0A7E9B0E080E090E0F901E80FF91F07
:10033000E491ED9301961817C1F708C0D901912FE8
:10034000E7E9F0E08D9181939150E1F71150812F11
:1003500090E01F5F0196820F931F9093B1008093EE
:10036000B00087E990E0612F4ED0612F6C5F6C3058
:1003700041F08FEF8093610004C08FEF80936100A4
:100380006EE16093600094E186B38C7031F491501B
:10039000D9F71092B3001092AD0010E0992309F440
:1003A00011E080917A00811729F0112309F445D5D5
:1003B00010937A00DF91CF911F910895A82FB92F44
:1003C0008FEF9FEF1BC02D918227282F2295282782
:1003D000722F269526952727239526952170782F0D
:1003E000892F82272195207C922F22277695279589
:1003F000972782277695279597278227615018F7A8
:10040000809590950895DADF8D939D930895A6E0E9
:1004100088279927AA9569F00197E1F3B399FCCF52
:10042000B39BFECF81E09927A6B3019611F0AC7083
:10043000D9F70895CF93CFB7CF93C395B39BE9F77F
:10044000B39B0BC0B39B09C0B39B07C0B39B05C054
:10045000B39B03C0B39B01C0D5C00F92DF93C09183
:10046000AF00DD27CA54DF4F012EB39B03C0DF91DD
:100470000F90E6CF2F930F931F934F932FEF4F6F54
:1004800006B303FB20F95F933F9350E03BE065C068
:1004900016B30126502953FDC89556B3012703FB17
:1004A00025F92F7306B3B1F05027102713FB26F957
:1004B00006B22230F0F000C016B3012703FB27F983
:1004C0000126502906B22430E8F54F77206816B38C
:1004D0000000F6CF50274F7D206206B2102F00009B
:1004E00000C006B300265029102713FB26F906B2D8
:1004F000E2CF4F7B06B3206400C0DACF012650293B
:100500001C7006B269F14E7F2160012F16B328C01E
:10051000002650294D7F06B22260102F29C00126E7
:1005200050294B7F06B22460012F2DC016B301263F
:100530005029477F2860000006B22EC04F7E06B3C8
:10054000206130C0422706B3499300265029102766
:1005500006B24FEF13FB20F9297F16B379F21C7016
:1005600059F10126502906B2012703FB21F9237F07
:1005700006B371F2002650293150D0F006B2102790
:1005800013FB22F9277E16B351F2012650290127C9
:1005900003FB06B223F92F7C49F2000006B31027B3
:1005A00013FB24F90026502906B22F7939F270CFB7
:1005B00010E41ABF002719C03B503195C31BD0402F
:1005C00010E41ABF0881033C09F10B34F9F02091C3
:1005D000AD001981110F1213EDCF4A81441F093666
:1005E00051F10D3211F0013E29F70093B4003F9113
:1005F0005F914F911F910F912F91DF910F90CAB78B
:10060000C6FD1BCFCF91CFBFCF9118952091B400DD
:10061000222369F31091B200112379F534307AF175
:100620003093B2002093AE001091AF003BE0311B3D
:100630003093AF0024C00091B2000130F4F40AE519
:100640004F7049F43091600034FD1AC0009360008F
:10065000C6E9D0E019C03091A10034FD11C000936B
:10066000A100C2EAD0E010C0052710E000C021C000
:10067000052710E0C89508BB14C03AE501C032ED6B
:10068000032EC0E0D0E032E017B31C60C39A08B379
:1006900017BB5CE020E84FEF20FF052708BB27953C
:1006A00017951C3F28F700004552B0F720FF05279B
:1006B000279508BB17951C3FB8F629913A9561F725
:1006C000037F1091B300110F08BBC250D04011F04E
:1006D0001093AD0010E41ABF086017B3137F402FCA
:1006E000437F54E05A95F1F708BB17BB48BB7FCF57
:1006F000FC01808190E064E670E0F2D3DC0190932D
:10070000CD008093CC00818190E064E670E0E8D376
:100710009C019093CF008093CE00828190E064E6AC
:1007200070E0DED39093D1008093D000B093DD00D1
:10073000A093DC003093DF002093DE009093E10073
:100740008093E000109226011092250180818BBDDC
:100750008181809589BD8281809588BD08950F93A0
:100760001F93FC019B01808190E064E670E0B8D3A8
:10077000DC019093DD008093DC00818190E064E6F1
:1007800070E0AED38C019093DF008093DE00828115
:1007900090E064E670E0A4D3FC019093E1008093C4
:1007A000E0002F5F3F4F3093260120932501215019
:1007B00030408091CC009091CD00AD01481B590B89
:1007C000CA01B9019FD37093D3006093D200809186
:1007D000CE009091CF00A801481B590BCA01B90166
:1007E00091D37093D5006093D4008091D000909104
:1007F000D100AF01481B590BCA01B90183D37093D3
:10080000D7006093D6001F910F9108958091250124
:1008100090912601009709F460C0019790932601FA
:1008200080932501892B39F18091D2009091D300DA
:100830002091CC003091CD00820F931F9093CD007A
:100840008093CC008091D4009091D5002091CE006F
:100850003091CF00820F931F9093CF008093CE00F2
:100860008091D6009091D7002091D0003091D10096
:10087000820F931F14C08091DC009091DD00909353
:10088000CD008093CC008091DE009091DF009093AA
:10089000CF008093CE008091E0009091E100909392
:1008A000D1008093D0008091CC009091CD0064E67F
:1008B00070E028D36BBD8091CE009091CF006CE9A1
:1008C0007FEF20D3615069BD8091D0009091D1001D
:1008D0006CE97FEF17D3615068BD089578941F923B
:1008E0000F920FB60F9211248F939F93AF93BF93E4
:1008F0008091210190912201A0912301B0912401C6
:100900000196A11DB11D8093210190932201A09316
:100910002301B0932401BF91AF919F918F910F90CC
:100920000FBE0F901F901895FC0180818076803259
:1009300061F48181813011F0893039F488E080934D
:100940008C0010928B008FEF089580E00895109234
:10095000E4001092D9001092DA001092DB0089EDC9
:1009600090E0C6DE08951F9320918C00162F261765
:1009700008F4122F20918B0030E023573F4FB9012C
:10098000412F50E0E6D280918B00810F80938B0045
:1009900080918C00811B80938C00812F1F91089582
:1009A0008091210190912201A0912301B091240115
:1009B0008093810090938200A0938300B093840081
:1009C00085EE90E066E070E04CE350E0CBD2089515
:1009D0008F929F92AF92BF92CF92DF92EF92FF924F
:1009E0000F931F93CF93DF932EE088E190E00FB633
:1009F000F894A89581BD0FBE21BD80E090E0C2D2E1
:100A00008F3F09F081BF83E187BB83EF8ABD83E01D
:100A100083BF87E080BF80E68CBD88B7846088BFD5
:100A200089B7846089BF02E010E0C9E6D0E0C80160
:100A3000A9D2982F92959F709A3010F4905D01C0C2
:100A4000995C8F708A3010F4805D01C0895C988356
:100A500019828A831B820F5F1F4F249620E0063085
:100A6000120729F730DBBB9A2FEF4DE150E1A89533
:100A7000CA010197F1F7822F82958F708BBD809507
:100A800089BD88BD215099F7BB98789460DF82E0DA
:100A9000882E99249394A89545DBE0902101F0904D
:100AA0002201009123011091240120917D003091B9
:100AB0007E0040917F0050918000D801C701821BC9
:100AC000930BA40BB50B181619061A061B063CF55A
:100AD000265F3F4F4F4F5F4F20937D0030937E0046
:100AE00040937F005093800091DE80917C00909134
:100AF000E400882389F4992391F435EFE31631E07B
:100B0000F30630E0030730E0130748F08092E4007A
:100B10001092D80045DF03C0923009F418DF8091AD
:100B2000850090918600892BE1F08091870090915B
:100B30008800A0918900B0918A00A8019701281B24
:100B4000390B4A0B5B0B12161306140615064CF4F0
:100B500010928600109285009092E4001092D800C6
:100B60001FDF8091E400882309F495CFA0908100D5
:100B7000B0908200C0908300D0908400EA18FB08F7
:100B80000C091D091E141F04100611060CF083CF5A
:100B90002091D800822F90E065E070E0A1D1A9ED0E
:100BA000B0E0FC01EB51FF4F83E001900D928150CA
:100BB000E1F7822F90E065E070E092D1FC01EB510B
:100BC000FF4F638174817093E3006093E20089EDCD
:100BD00090E0C5DD8091D8008F5F8093D8008C3085
:100BE00011F41092D8008091E2009091E3006AE045
:100BF00070E076D1A0E0B0E08A0D9B1DAC1DBD1D5C
:100C00008093810090938200A0938300B09384002E
:100C100042CF0F931F93DF93CF9300D000D00F925A
:100C2000CDB7DEB780918E00833671F4709192005B
:100C300060E08091930090E0682B792B1092E400A3
:100C40008FE890E08CDDC8C08E3649F48FE890E0E4
:100C500060E070E084DD8FE890E04ADDBDC0803761
:100C600051F480918F008093E400809190008093F4
:100C7000D80096DEB1C0803581F5B0918F00A0918B
:100C80009000F0919100E09192002091930080916A
:100C900094008C3008F080E090E065E070E020D1B6
:100CA000BC01AC014B515F4F9E2F80E030E0822BA6
:100CB000932B9D838C83FB83AA83B983DA01FE0186
:100CC000319685E001900D928150E1F76A5F7F4F88
:100CD000CA0145E050E05ED17FC0823509F58091C0
:100CE00094008C3008F080E090E065E070E0F8D08F
:100CF000BC016A5F7F4FCE01019645E050E032D1E2
:100D0000898180938F008A81809390008B8180936A
:100D100091009C818D8180939200909393005CC0A0
:100D2000853629F480918F0090E02CD153C0853412
:100D300051F480918F0060919000882309F44CC099
:100D400090E031D149C0843491F540919000909168
:100D5000910080918F00882321F1342F20E0892F8A
:100D600090E0822B932B90938600809385000091D6
:100D700021011091220120912301309124016AE088
:100D800070E0AED0A0E0B0E0800F911FA21FB31FB3
:100D90008093870090938800A0938900B0938A0085
:100DA00004C01092860010928500D1DD15C08637F0
:100DB00039F481E38093900080E3809391000CC02C
:100DC000813251F485E580938E008AEA80938F000A
:100DD00080917C00809390000F900F900F900F9067
:100DE0000F90CF91DF911F910F9108951F93582F6E
:100DF000792F80918C008823E1F0162F861708F454
:100E0000182F20918B0030E023573F4FC901652FE9
:100E1000412F50E09ED080918B00810F80938B00FA
:100E200080918C00811B80938C00882311F080E0DE
:100E300002C0EFDE81E01F910895DF92EF92FF92F2
:100E40000F931F93CF93DF9300E090E8D92EEE2409
:100E5000FF241D2D100F11BFDADAEC0189E0C43335
:100E6000D8070CF0102FD6940894E11CF11C88E0F0
:100E7000E816F10411F0012FECCF115011BF1F5FE4
:100E8000E12EFF240894E11CF11C13C0C0DA9C0180
:100E90002453394037FF03C0309521953F4F2C171D
:100EA0003D0714F09E0101C011B781B78F5F81BF6C
:100EB000E90181B790E0E816F90644F711BF61B780
:100EC00080E090E070D080917C008F5F80937C0008
:100ED000DF91CF911F910F91FF90EF90DF900895D8
:100EE0005527002480FF02C0060E571F660F771F8C
:100EF0006115710521F096958795009799F7952FC3
:100F0000802D089597FB092E07260AD077FD04D07F
:100F10000CD006D000201AF4709561957F4F08958B
:100F2000F6F7909581959F4F0895AA1BBB1B51E141
:100F300007C0AA1FBB1FA617B70710F0A61BB70B49
:100F4000881F991F5A95A9F780959095BC01CD01EE
:100F50000895FB01DC0102C001900D924150504008
:100F6000D8F70895DC01CB01FC01E199FECF06C062
:100F7000FFBBEEBBE09A31960DB20D92415050404E
:100F8000B8F70895E199FECF9FBB8EBBE09A9927F1
:100F90008DB30895DC01CB0102C02D9105D04150E5
:100FA0005040D8F70895262FE199FECF1CBA9FBB79
:100FB0008EBB2DBB0FB6F894E29AE19A0FBE019654
:060FC0000895F894FFCF34
:100FC6005AFF000A00000012034E006F006E007404
:0A0FD60000680069006E006700006B
:00000001FF
