:1000000046C016C25FC05EC0AEC45CC05BC05AC012
:1000100059C058C057C056C055C054C053C009023B
:1000200022000101008032090400000103000000E9
:10003000092101010001221800070581030800328F
:100040001201100100000008B827ED0100010102B3
:100050000301120362006C0069006E006B0028004F
:10006000310029000E035400680069006E0067002B
:100070004D00040309040600FF0901A10115002633
:10008000FF007508850195080900B20201C011241E
:100090001FBECFE5D2E0DEBFCDBF10E0A0E6B0E0EE
:1000A000E2E9FFE002C005900D92AA37B107D9F747
:1000B00011E0AAE7B0E001C01D92A732B107E1F755
:1000C000DCD565C79DCFCF93C62F2091A10024FF1B
:1000D00007C02091A20038E823272093A20003C084
:1000E0002AE52093A100DC01E3EAF0E09C2F9E0FBB
:1000F0008D918193892F8E1B1816D4F36C2F83EA70
:1001000090E07FD1CC5FC093A100CF910895CF93B1
:10011000DF936091B200635067FDCEC08091AF0065
:10012000CCE0D0E0C81BD109CA54DF4F8091AE00AB
:100130008D3209F0B0C0683009F0BCC083EC809308
:1001400096008AE58093600010927A00888180761C
:1001500031F0CE014CD48F3F09F48CC092C09A810B
:1001600010929F008981811106C01092A0002FE992
:1001700030E082E07AC0853019F49093B30072C009
:10018000863009F059C08B81813019F480E490E009
:1001900027C0823049F48EE190E09093B1008093C3
:1001A000B00090E482E245C0833059F5911109C056
:1001B00082E790E09093B1008093B00090E484E0F7
:1001C00038C0913049F484E690E09093B100809378
:1001D000B00090E48EE02DC0923049F482E590E0CA
:1001E0009093B1008093B00090E482E122C09330FC
:1001F000F1F482E690E09093B1008093B00090E03B
:10020000F4CF813249F480E390E09093B100809381
:10021000B00090E489E00DC0823249F486E790E0B6
:100220009093B1008093B00090E488E102C090E424
:1002300080E090937A0025C0883069F0893019F405
:100240009093B5000FC08A3049F08B3059F48BE49D
:100250008093A20007C025EB30E002C02FE930E018
:1002600081E003C02FE930E080E03093B1002093BB
:10027000B00007C0988197FD8E8190E890937A0036
:1002800007C09F81911104C09E81981708F4892F9F
:10029000809361000FC080917A0087FF0BC0CE0170
:1002A000C6D48F3F21F48EE18093600003C081119A
:1002B000109261001092B2008091600084FF56C0DD
:1002C000809161008F3F09F451C0C82F893008F038
:1002D000C8E08C1B809361008091960098E8892784
:1002E00080939600CC2389F180917A0087FF06C025
:1002F0006C2F87E990E05DD3C82F25C04091B000F6
:100300005091B10086FF0BC0FA01A7E9B0E08C2F35
:100310008A0F94919D9331968A13FBCF09C0DA011D
:10032000E7E9F0E08C2F8E0F9D9191938E13FCCF17
:100330002C2F215030E02F5F3F4F240F351F30937B
:10034000B1002093B000C93058F46C2F87E990E0D9
:1003500058D0CC5FCC3041F08FEF8093610004C067
:100360008FEF80936100CEE1C093600084E196B38B
:100370009C7031F48150D9F71092B3001092AD0007
:10038000C1E08111C0E080917B008C1729F0C11180
:1003900001C0ACD1C0937B00DF91CF91089585B7A8
:1003A000826085BF8BB780648BBF8BE48093A20093
:1003B0008AE58093A1000895A82FB92F8FEF9FEFB2
:1003C0001BC02D918227282F22952827722F269532
:1003D00026952727239526952170782F892F822708
:1003E0002195207C922F2227769527959727822783
:1003F0007695279597278227615018F780959095D5
:100400000895DADF8D939D930895A6E088279927B4
:10041000AA9569F00197E1F3B399FCCFB39BFECFA6
:1004200081E09927A6B3019611F0AC70D9F7089531
:10043000CF93CFB7CF93C395B39BE9F7B39B0BC0D3
:10044000B39B09C0B39B07C0B39B05C0B39B03C05C
:10045000B39B01C0D5C00F92DF93C091AF00DD27E1
:10046000CA54DF4F012EB39B03C0DF910F90E6CF3C
:100470002F930F931F934F932FEF4F6F06B303FBF1
:1004800020F95F933F9350E03BE065C016B301262F
:10049000502953FDC89556B3012703FB25F92F7347
:1004A00006B3B1F05027102713FB26F906B222300D
:1004B000F0F000C016B3012703FB27F901265029ED
:1004C00006B22430E8F54F77206816B30000F6CF67
:1004D00050274F7D206206B2102F000000C006B3E7
:1004E00000265029102713FB26F906B2E2CF4F7BD6
:1004F00006B3206400C0DACF012650291C7006B272
:1005000069F14E7F2160012F16B328C000265029C3
:100510004D7F06B22260102F29C0012650294B7F43
:1005200006B22460012F2DC016B301265029477F43
:100530002860000006B22EC04F7E06B3206130C096
:10054000422706B3499300265029102706B24FEFE1
:1005500013FB20F9297F16B379F21C7059F101269B
:10056000502906B2012703FB21F9237F06B371F25C
:10057000002650293150D0F006B2102713FB22F983
:10058000277E16B351F201265029012703FB06B23C
:1005900023F92F7C49F2000006B3102713FB24F93E
:1005A0000026502906B22F7939F270CF10E41ABF15
:1005B000002719C03B503195C31BD04010E41ABF2F
:1005C0000881033C09F10B34F9F02091AD00198149
:1005D000110F1213EDCF4A81441F093651F10D322C
:1005E00011F0013E29F70093B4003F915F914F91C4
:1005F0001F910F912F91DF910F90CAB7C6FD1BCFAE
:10060000CF91CFBFCF9118952091B400222369F3E9
:100610001091B200112379F534307AF13093B200A1
:100620002093AE001091AF003BE0311B3093AF0040
:1006300024C00091B2000130F4F40AE54F7049F48F
:100640003091600034FD1AC000936000C6E9D0E02C
:1006500019C03091A10034FD11C00093A100C2EA7D
:10066000D0E010C0052710E000C021C0052710E031
:10067000C89508BB14C03AE501C032ED032EC0E0B6
:10068000D0E032E017B31C60C39A08B317BB5CE03C
:1006900020E84FEF20FF052708BB279517951C3F43
:1006A00028F700004552B0F720FF0527279508BB23
:1006B00017951C3FB8F629913A9561F7037F109181
:1006C000B300110F08BBC250D04011F01093AD0021
:1006D00010E41ABF086017B3137F402F437F54E024
:1006E0005A95F1F708BB17BB48BB7FCFDF92EF925B
:1006F000FF920F931F93CF93DF9308E010E0F12C4C
:1007000080E8E82EDE2CDF0CD1BE7FDEEC01C433A6
:1007100089E0D8070CF4FD2CE6940150110991F7FB
:100720008F2D815081BF0F2D10E00F5F1F4F10C024
:100730006CDE8453994097FF03C091958195910990
:100740008C179D0714F4F1B6EC0181B78F5F81BF60
:1007500081B790E0081719075CF7F1BE61B780E038
:1007600090E007D480917C008F5F80937C00DF91C4
:10077000CF911F910F91FF90EF90DF900895FC01B2
:100780004081842F90E064E670E090D3DC01909388
:10079000CD008093CC00818190E064E670E086D348
:1007A0009C019093CF008093CE00828190E064E61C
:1007B00070E07CD39093D1008093D000B093DD00A3
:1007C000A093DC003093DF002093DE009093E100E3
:1007D0008093E00010922601109225014BBD81818B
:1007E000809589BD8281809588BD0895CF93DF93E0
:1007F000FC019B01808190E064E670E057D3DC014E
:100800009093DD008093DC00818190E064E670E0ED
:100810004DD3EC019093DF008093DE00828190E065
:1008200064E670E043D3FC019093E1008093E00024
:10083000C901019690932601809325018091CC00F7
:100840009091CD00AD01481B590BCA01B90140D3AD
:100850007093D3006093D2008091CE009091CF002E
:10086000AE01481B590BCA01B90132D37093D500B0
:100870006093D4008091D0009091D100AF01481BCB
:10088000590BCA01B90124D37093D7006093D600E5
:10089000DF91CF91089580912501909126010097D5
:1008A00009F460C001979093260180932501892B5C
:1008B00039F18091CC009091CD002091D2003091FF
:1008C000D300820F931F9093CD008093CC00809132
:1008D000CE009091CF002091D4003091D500820FAE
:1008E000931F9093CF008093CE008091D000909181
:1008F000D1002091D6003091D700820F931F14C0F1
:100900008091DC009091DD009093CD008093CC002D
:100910008091DE009091DF009093CF008093CE0015
:100920008091E0009091E1009093D1008093D000FD
:100930008091CC009091CD0064E670E0C9D26BBD8F
:100940008091CE009091CF002CE93FEFB901C0D249
:10095000615069BD8091D0009091D100B901B8D2A9
:10096000615068BD089578941F920F920FB60F9250
:1009700011248F939F93AF93BF9380912101909106
:100980002201A0912301B09124010196A11DB11D66
:100990008093210190932201A0932301B09324011D
:1009A000BF91AF919F918F910F900FBE0F901F90AD
:1009B00018951F93CF93DF93D0917D00C62FD61744
:1009C00008F4CD2F10917E00212F30E021583F4FA9
:1009D0004C2F50E0B901A3D21C0F10937E00DC1BFA
:1009E000D0937D008C2FDF91CF911F910895FC0152
:1009F00020812076203269F48181813009F402C09F
:100A0000893039F488E080937D0010927E008FEF6A
:100A1000089580E008951092E4001092D900109299
:100A2000DA001092DB0089ED90E0A9CE80912101DF
:100A300090912201A0912301B0912401809388001C
:100A400090938900A0938A00B0938B004CE350E010
:100A500060E070E085EE90E06BC20F931F93CF9340
:100A6000DF9300D000D01F92CDB7DEB78091800019
:100A7000833661F47091840060E080918500682B7A
:100A80001092E40081E890E0B1DEC7C08E3649F4F0
:100A900060E070E081E890E0A9DE81E890E06FDE40
:100AA000BCC0803751F4809181008093E400809134
:100AB00082008093D800BADFB0C08035A1F51091D4
:100AC0008100B0918200A09183009091840080E029
:100AD00020918500AC01422B9A01409186004C3058
:100AE00008F040E0842F90E065E070E0DFD1FC0189
:100AF000EB51FF4F1083B183A28334832383842F70
:100B000090E065E070E0D2D19C0120503040842F0D
:100B100090E065E070E0CAD145E050E0B9018B514A
:100B20009F4F1ED27AC0823509F5809186008C30A5
:100B300008F080E090E065E070E0B8D1BC01605062
:100B4000704045E050E0CE010196F2D1898180935A
:100B500081008A81809382008B81809383008C81C5
:100B60009D81909384008093850057C0853629F439
:100B70008091810090E0ECD14EC0853451F4809199
:100B8000810060918200882309F447C090E0F1D190
:100B900044C0843469F530918200209183008091B3
:100BA00081008823F9F0932F80E0822B90938D00B1
:100BB00080938C000091210110912201209123014A
:100BC000309124016AE070E071D1080F191F211DD6
:100BD000311D00938E0010938F002093900030936E
:100BE000910004C010928D0010928C0014DF15C08B
:100BF000863739F481E38093820080E38093830019
:100C00000CC0813251F485E5809380008AEA80939C
:100C1000810080917C00809382000F900F900F9054
:100C20000F900F90DF91CF911F910F9108951F9317
:100C3000CF93DF93D0917D00D11103C00EDF81E00F
:100C400018C0C62FD61708F4CD2F10917E00212F83
:100C500030E021583F4F4C2F50E0BC01C9015FD11B
:100C60001C0F10937E00DC1BD0937D00DD2331F33D
:100C700080E0DF91CF911F9108952EE088E190E010
:100C80000FB6F894A89581BD0FBE21BD80E090E01D
:100C90005FD18F3F09F081BF83E187BB83EF8ABDBE
:100CA00083E083BF87E080BF80E68CBD88B7846027
:100CB00088BF89B7846089BFCCE3D0E004E610E048
:100CC000CE0146D1282F22952F702A3010F4205DB6
:100CD00001C0295C8F708A3010F4805D01C0895C8E
:100CE000332727FD3095F80131832083992787FD2D
:100CF00090959383828321960C5F1F4FF0E0C03460
:100D0000DF07F1F64CDBBB9A8FEFA895ECE1F0E141
:100D10003197F1F700C00000982F92959F709BBD0E
:100D2000909599BD98BD815081F7BB98789473DEFA
:100D3000C2E0D1E0A895EBD9C0902101D09022016A
:100D4000E0902301F0902401809192009091930013
:100D5000A0919400B0919500B701A601481B590BD2
:100D60006A0B7B0B141615061606170624F50A9651
:100D7000A11DB11D8093920090939300A0939400C5
:100D8000B093950088DD90917C008091E4009111F2
:100D90000FC0811110C0F5EFCF16F1E0DF06E104BE
:100DA000F10448F0C093E4001092D8003FDE03C085
:100DB000823009F430DE80918C0090918D00892B77
:100DC000E1F080918E0090918F00A0919000B09101
:100DD0009100A7019601281B390B4A0B5B0B1216D9
:100DE0001306140615064CF410928D0010928C0018
:100DF000D093E4001092D80019DE8091E40088239B
:100E000009F498CF8090880090908900A0908A0083
:100E1000B0908B00C818D908EA08FB081C141D0400
:100E20001E041F040CF086CFA091D8008A2F90E0FA
:100E300065E070E03BD0FC01EB51FF4F2081318138
:100E400042812093D9003093DA004093DB008A2F4F
:100E500090E065E070E02AD08B519F4FFC016381E8
:100E600074817093E3006093E20089ED90E0BEDC52
:100E70008091D8008F5F8C3019F08093D80002C029
:100E80001092D8008091E2009091E3006AE070E057
:100E90000DD0880E991EA11CB11C809288009092E2
:100EA0008900A0928A00B0928B0044CF552700247D
:100EB00080FF02C0060E571F660F771F6115710570
:100EC00021F096958795009799F7952F802D089595
:100ED00097FB072E16F4009406D077FD08D00BD0B0
:100EE00007FC05D03EF4909581959F4F089570952D
:100EF00061957F4F0895AA1BBB1B51E107C0AA1F34
:100F0000BB1FA617B70710F0A61BB70B881F991FAA
:100F10005A95A9F780959095BC01CD010895FB01E4
:100F2000DC0102C001900D9241505040D8F7089565
:100F3000DC01CB01FC01E199FECF06C0FFBBEEBB9B
:100F4000E09A31960DB20D9241505040B8F7089595
:100F5000E199FECF9FBB8EBBE09A99278DB3089590
:100F6000DC01CB0102C02D9105D041505040D8F793
:100F70000895262FE199FECF1CBA9FBB8EBB2DBBD7
:100F80000FB6F894E29AE19A0FBE01960895F8948C
:020F9000FFCF91
:100F92005AFF12034E006F006E0074006800690071
:0A0FA2006E0067000A000000000066
:00000001FF
